{
  "contractName": "Election",
  "abi": [
    {
      "constant": true,
      "inputs": [],
      "name": "candidatesCount",
      "outputs": [
        {
          "name": "",
          "type": "uint256"
        }
      ],
      "payable": false,
      "stateMutability": "view",
      "type": "function"
    },
    {
      "constant": true,
      "inputs": [
        {
          "name": "",
          "type": "uint256"
        }
      ],
      "name": "candidates",
      "outputs": [
        {
          "name": "id",
          "type": "uint256"
        },
        {
          "name": "name",
          "type": "string"
        },
        {
          "name": "voteCount",
          "type": "uint256"
        }
      ],
      "payable": false,
      "stateMutability": "view",
      "type": "function"
    },
    {
      "inputs": [],
      "payable": false,
      "stateMutability": "nonpayable",
      "type": "constructor"
    }
  ],
  "bytecode": "0x608060405234801561001057600080fd5b5061005e6040805190810160405280600b81526020017f43616e64696461746520310000000000000000000000000000000000000000008152506100b0640100000000026401000000009004565b6100ab6040805190810160405280600b81526020017f43616e64696461746520320000000000000000000000000000000000000000008152506100b0640100000000026401000000009004565b6101d1565b60016000815480929190600101919050555060606040519081016040528060015481526020018281526020016000815250600080600154815260200190815260200160002060008201518160000155602082015181600101908051906020019061011b92919061012c565b506040820151816002015590505050565b828054600181600116156101000203166002900490600052602060002090601f016020900481019282601f1061016d57805160ff191683800117855561019b565b8280016001018555821561019b579182015b8281111561019a57825182559160200191906001019061017f565b5b5090506101a891906101ac565b5090565b6101ce91905b808211156101ca5760008160009055506001016101b2565b5090565b90565b610224806101e06000396000f30060806040526004361061004c576000357c0100000000000000000000000000000000000000000000000000000000900463ffffffff1680632d35a8a2146100515780633477ee2e1461007c575b600080fd5b34801561005d57600080fd5b50610066610130565b6040518082815260200191505060405180910390f35b34801561008857600080fd5b506100a760048036038101908080359060200190929190505050610136565b6040518084815260200180602001838152602001828103825284818151815260200191508051906020019080838360005b838110156100f35780820151818401526020810190506100d8565b50505050905090810190601f1680156101205780820380516001836020036101000a031916815260200191505b5094505050505060405180910390f35b60015481565b6000602052806000526040600020600091509050806000015490806001018054600181600116156101000203166002900480601f0160208091040260200160405190810160405280929190818152602001828054600181600116156101000203166002900480156101e85780601f106101bd576101008083540402835291602001916101e8565b820191906000526020600020905b8154815290600101906020018083116101cb57829003601f168201915b50505050509080600201549050835600a165627a7a72305820e9c9c374de6e941d4297df5915d4ad840bc60ef435bf865a215e21849d00d0b20029",
  "source": "pragma solidity ^0.4.2;\ncontract Election {\n\t// need to be able to:\n\t\n\t// Model a candidate i.e what it looks like, its name and id\n\t// Must assign to a variable to stick it in storage\n\tstruct Candidate{\n\t\tuint id;\n\t\tstring name;\n\t\tuint voteCount;\n\t}\n\n\t// Store candidates - Done with a mapping, like a hash....\n\t// id matches to the candidate structure type. This will be where it is stored\n\t\n\t// Fetch Candidates - From storage\n\t// Stored pubic so a candidates function is generated so we can fetch it\n\t// Storing it writes the blockchain. Interacts with the data layer\n\tmapping(uint => Candidate) public candidates;\n\n\t// Store Candidates Count - How many candidates there are\n\t// why? No way to determine size or iterate over mapping in solidity and so no way of knowing how many candidates there are.\n\t// Counter cache used to track this. Track how many candidates in our mapping and will increment everytime we add a candidates \n\t// This is used for looping. We can then find a candidate\n\tuint public candidatesCount;\n\t// list all candidates i.e multiple\n\n\t// Need to track how many votes and reference them by id\n\n\t// contructor\n\tfunction Election () public {\n\t\t// add candidates called within the functiuon so contract has control\n\t\t// will run whenever the contract is initialized and deployed to BC\n\t\taddCandidate(\"Candidate 1\");\n\t\taddCandidate(\"Candidate 2\");\n\n\t}\n\t\n\n\t// Increments the candidates count cache\n\t// declares a function takes in local string variable, but is a private function. So its not accessible publically and no one can add a candidate to the election\n\tfunction addCandidate (string _name) private {\n\t\tcandidatesCount ++;\n\t\t// creates a candidate\n\t\t// references candidates mapping and assing in id of candidates Count\n\t\t// Assigns the value to the key mapping with the candidate function\n\t\t\t// passing in id, string name and initialvalue of 0 as it has no vote count\n\t\tcandidates[candidatesCount] = Candidate(candidatesCount, _name, 0);\n\t}\n\n}\n",
  "sourcePath": "/home/connor/gitclones/personal/princeton/blockchain-election-ethereum/contracts/Election.sol",
  "compiler": {
    "name": "solc",
    "version": "0.4.24+commit.e67f0147.Emscripten.clang"
  },
  "schemaVersion": "2.0.1",
  "updatedAt": "2018-12-05T08:44:08.955Z"
}